{
  "_format": "hh-sol-artifact-1",
  "contractName": "Nod",
  "sourceName": "contracts/Nod.sol",
  "abi": [
    {
      "inputs": [],
      "stateMutability": "nonpayable",
      "type": "constructor"
    },
    {
      "inputs": [],
      "name": "ECDSAInvalidSignature",
      "type": "error"
    },
    {
      "inputs": [
        {
          "internalType": "uint256",
          "name": "length",
          "type": "uint256"
        }
      ],
      "name": "ECDSAInvalidSignatureLength",
      "type": "error"
    },
    {
      "inputs": [
        {
          "internalType": "bytes32",
          "name": "s",
          "type": "bytes32"
        }
      ],
      "name": "ECDSAInvalidSignatureS",
      "type": "error"
    },
    {
      "inputs": [],
      "name": "InvalidShortString",
      "type": "error"
    },
    {
      "inputs": [
        {
          "internalType": "address",
          "name": "owner",
          "type": "address"
        }
      ],
      "name": "OwnableInvalidOwner",
      "type": "error"
    },
    {
      "inputs": [
        {
          "internalType": "address",
          "name": "account",
          "type": "address"
        }
      ],
      "name": "OwnableUnauthorizedAccount",
      "type": "error"
    },
    {
      "inputs": [
        {
          "internalType": "string",
          "name": "str",
          "type": "string"
        }
      ],
      "name": "StringTooLong",
      "type": "error"
    },
    {
      "anonymous": false,
      "inputs": [
        {
          "indexed": true,
          "internalType": "bytes32",
          "name": "agreementId",
          "type": "bytes32"
        },
        {
          "indexed": true,
          "internalType": "address",
          "name": "counterparty",
          "type": "address"
        },
        {
          "indexed": false,
          "internalType": "uint256",
          "name": "timestamp",
          "type": "uint256"
        }
      ],
      "name": "AgreementDeclined",
      "type": "event"
    },
    {
      "anonymous": false,
      "inputs": [
        {
          "indexed": true,
          "internalType": "bytes32",
          "name": "agreementId",
          "type": "bytes32"
        },
        {
          "indexed": false,
          "internalType": "string",
          "name": "cid",
          "type": "string"
        },
        {
          "indexed": true,
          "internalType": "address",
          "name": "initiator",
          "type": "address"
        },
        {
          "indexed": true,
          "internalType": "address",
          "name": "counterparty",
          "type": "address"
        },
        {
          "indexed": false,
          "internalType": "uint256",
          "name": "timestamp",
          "type": "uint256"
        }
      ],
      "name": "AgreementSealed",
      "type": "event"
    },
    {
      "anonymous": false,
      "inputs": [],
      "name": "EIP712DomainChanged",
      "type": "event"
    },
    {
      "anonymous": false,
      "inputs": [
        {
          "indexed": true,
          "internalType": "address",
          "name": "previousOwner",
          "type": "address"
        },
        {
          "indexed": true,
          "internalType": "address",
          "name": "newOwner",
          "type": "address"
        }
      ],
      "name": "OwnershipTransferred",
      "type": "event"
    },
    {
      "inputs": [
        {
          "internalType": "bytes32",
          "name": "",
          "type": "bytes32"
        }
      ],
      "name": "agreements",
      "outputs": [
        {
          "internalType": "string",
          "name": "cid",
          "type": "string"
        },
        {
          "internalType": "address",
          "name": "initiator",
          "type": "address"
        },
        {
          "internalType": "address",
          "name": "counterparty",
          "type": "address"
        },
        {
          "internalType": "enum Nod.NodStatus",
          "name": "status",
          "type": "uint8"
        },
        {
          "internalType": "uint256",
          "name": "createdAt",
          "type": "uint256"
        },
        {
          "internalType": "uint256",
          "name": "expiresAt",
          "type": "uint256"
        }
      ],
      "stateMutability": "view",
      "type": "function"
    },
    {
      "inputs": [
        {
          "internalType": "bytes32",
          "name": "agreementId",
          "type": "bytes32"
        }
      ],
      "name": "declineAgreement",
      "outputs": [],
      "stateMutability": "nonpayable",
      "type": "function"
    },
    {
      "inputs": [],
      "name": "eip712Domain",
      "outputs": [
        {
          "internalType": "bytes1",
          "name": "fields",
          "type": "bytes1"
        },
        {
          "internalType": "string",
          "name": "name",
          "type": "string"
        },
        {
          "internalType": "string",
          "name": "version",
          "type": "string"
        },
        {
          "internalType": "uint256",
          "name": "chainId",
          "type": "uint256"
        },
        {
          "internalType": "address",
          "name": "verifyingContract",
          "type": "address"
        },
        {
          "internalType": "bytes32",
          "name": "salt",
          "type": "bytes32"
        },
        {
          "internalType": "uint256[]",
          "name": "extensions",
          "type": "uint256[]"
        }
      ],
      "stateMutability": "view",
      "type": "function"
    },
    {
      "inputs": [
        {
          "internalType": "bytes32",
          "name": "agreementId",
          "type": "bytes32"
        }
      ],
      "name": "getAgreement",
      "outputs": [
        {
          "components": [
            {
              "internalType": "string",
              "name": "cid",
              "type": "string"
            },
            {
              "internalType": "address",
              "name": "initiator",
              "type": "address"
            },
            {
              "internalType": "address",
              "name": "counterparty",
              "type": "address"
            },
            {
              "internalType": "enum Nod.NodStatus",
              "name": "status",
              "type": "uint8"
            },
            {
              "internalType": "uint256",
              "name": "createdAt",
              "type": "uint256"
            },
            {
              "internalType": "uint256",
              "name": "expiresAt",
              "type": "uint256"
            }
          ],
          "internalType": "struct Nod.Agreement",
          "name": "",
          "type": "tuple"
        }
      ],
      "stateMutability": "view",
      "type": "function"
    },
    {
      "inputs": [
        {
          "internalType": "address",
          "name": "",
          "type": "address"
        }
      ],
      "name": "nonces",
      "outputs": [
        {
          "internalType": "uint256",
          "name": "",
          "type": "uint256"
        }
      ],
      "stateMutability": "view",
      "type": "function"
    },
    {
      "inputs": [],
      "name": "owner",
      "outputs": [
        {
          "internalType": "address",
          "name": "",
          "type": "address"
        }
      ],
      "stateMutability": "view",
      "type": "function"
    },
    {
      "inputs": [],
      "name": "renounceOwnership",
      "outputs": [],
      "stateMutability": "nonpayable",
      "type": "function"
    },
    {
      "inputs": [
        {
          "internalType": "string",
          "name": "cid",
          "type": "string"
        },
        {
          "internalType": "address",
          "name": "initiator",
          "type": "address"
        },
        {
          "internalType": "address",
          "name": "counterparty",
          "type": "address"
        },
        {
          "internalType": "uint256",
          "name": "createdAt",
          "type": "uint256"
        },
        {
          "internalType": "uint256",
          "name": "expiresAt",
          "type": "uint256"
        },
        {
          "internalType": "uint256",
          "name": "nonce",
          "type": "uint256"
        },
        {
          "internalType": "bytes",
          "name": "sig1",
          "type": "bytes"
        },
        {
          "internalType": "bytes",
          "name": "sig2",
          "type": "bytes"
        }
      ],
      "name": "sealAgreement",
      "outputs": [],
      "stateMutability": "nonpayable",
      "type": "function"
    },
    {
      "inputs": [
        {
          "internalType": "address",
          "name": "newOwner",
          "type": "address"
        }
      ],
      "name": "transferOwnership",
      "outputs": [],
      "stateMutability": "nonpayable",
      "type": "function"
    }
  ],
  "bytecode": "0x6101606040523461018057604051610018604082610184565b60038152602081019062139bd960ea1b825260405191610039604084610184565b600183526020830191603160f81b8352610052816101bb565b6101205261005f84610351565b61014052519020918260e05251902080610100524660a0526040519060208201927f8b73c3c69bb8fe3d512ecc4cf759cc79239f7b179b0ffacaa9a75d522b39400f8452604083015260608201524660808201523060a082015260a081526100c860c082610184565b5190206080523060c052331561016d5760028054336001600160a01b03198216811790925560405191906001600160a01b03167f8be0079c531659141344cd1fd0a4f28419497f9722a3daafe3b4186f6b6457e05f80a3611070908161048a823960805181610e30015260a05181610eed015260c05181610dfa015260e05181610e7f01526101005181610ea501526101205181610a1901526101405181610a420152f35b631e4fbdf760e01b5f525f60045260245ffd5b5f80fd5b601f909101601f19168101906001600160401b038211908210176101a757604052565b634e487b7160e01b5f52604160045260245ffd5b908151602081105f14610235575090601f8151116101f55760208151910151602082106101e6571790565b5f198260200360031b1b161790565b604460209160405192839163305a27a960e01b83528160048401528051918291826024860152018484015e5f828201840152601f01601f19168101030190fd5b6001600160401b0381116101a7575f54600181811c91168015610347575b602082101461033357601f8111610301575b50602092601f82116001146102a257928192935f92610297575b50508160011b915f199060031b1c1916175f5560ff90565b015190505f8061027f565b601f198216935f8052805f20915f5b8681106102e957508360019596106102d1575b505050811b015f5560ff90565b01515f1960f88460031b161c191690555f80806102c4565b919260206001819286850151815501940192016102b1565b5f8052601f60205f20910160051c810190601f830160051c015b8181106103285750610265565b5f815560010161031b565b634e487b7160e01b5f52602260045260245ffd5b90607f1690610253565b908151602081105f1461037c575090601f8151116101f55760208151910151602082106101e6571790565b6001600160401b0381116101a757600154600181811c9116801561047f575b602082101461033357601f811161044c575b50602092601f82116001146103eb57928192935f926103e0575b50508160011b915f199060031b1c19161760015560ff90565b015190505f806103c7565b601f1982169360015f52805f20915f5b868110610434575083600195961061041c575b505050811b0160015560ff90565b01515f1960f88460031b161c191690555f808061040e565b919260206001819286850151815501940192016103fb565b60015f52601f60205f20910160051c810190601f830160051c015b81811061047457506103ad565b5f8155600101610467565b90607f169061039b56fe60806040526004361015610011575f80fd5b5f3560e01c8063715018a614610b315780637ecebe0014610af957806384b0196e14610a015780638da5cb5b146109d95780639e1f68c714610933578063de17e6ac1461081e578063ee62feb91461023f578063f2fde38b146101b95763f42eb7651461007c575f80fd5b346101b55760203660031901126101b5575f60a060405161009c81610c7f565b6060815282602082015282604082015282606082015282608082015201526004355f52600360205260405f206040516100d481610c7f565b6040516100ec816100e58186610bfe565b0382610c9b565b815260018201546001600160a01b03908116602083019081526002840154918216604084019081526060840194919290919060a01c60ff1660038110156101a157856101919161016c975260046003840154936080880194855201549360a08701948552604051978897602089525160c060208a015260e0890190610ba2565b95516001600160a01b0390811660408901529051166060870152516080860190610cbd565b5160a08401525160c08301520390f35b634e487b7160e01b5f52602160045260245ffd5b5f80fd5b346101b55760203660031901126101b5576101d2610b8c565b6101da610d3e565b6001600160a01b0316801561022c57600280546001600160a01b0319811683179091556001600160a01b03167f8be0079c531659141344cd1fd0a4f28419497f9722a3daafe3b4186f6b6457e05f80a3005b631e4fbdf760e01b5f525f60045260245ffd5b346101b5576101003660031901126101b55760043567ffffffffffffffff81116101b557610271903690600401610cca565b602435916001600160a01b03831691908284036101b5576044356001600160a01b038116949092908584036101b557606435936084359160a43560c43567ffffffffffffffff81116101b5576102cb903690600401610cca565b9060e43567ffffffffffffffff81116101b5576102ec903690600401610cca565b8742116107e5578b5f5260046020528460405f2054036107b0576103e8936103d96103d2938f938f968f8f918f8f988b8e6103df9b6103c3966103366103c9996042973691610cf8565b60208151910120946040519460208601967f42f6793a881995a4e2d124e5443268e3bc262fdc54ad39790b9e8a50c2b7aa3d885260408701526060860152608085015260a084015260c083015260e082015260e0815261039861010082610c9b565b5190206103a3610df7565b906040519161190160f01b83526002830152602282015220963691610cf8565b85610f13565b90979197610f4d565b3691610cf8565b90610f13565b90949194610f4d565b6001600160a01b03160361076b576001600160a01b0316899003610726576048602061046292604051948591838301978a8c8a378a8401926bffffffffffffffffffffffff199060601b16858401526bffffffffffffffffffffffff199060601b1660348301528482015203016028810184520182610c9b565b5190205f818152600360205260409020600101549094906001600160a01b03166106e1576040519161049383610c7f565b61049e368587610cf8565b8352602083019187835260408401928984526060850190600182526080860192835260a08601938452885f52600360205260405f20955180519067ffffffffffffffff82116106cd5781906104f38954610bc6565b601f811161067d575b50602090601f831160011461061a575f9261060f575b50508160011b915f199060031b1c19161786555b516001860180546001600160a01b03199081166001600160a01b039384161790915594516002870180549096169116178455519260038410156101a15760049381549060ff60a01b9060a01b169060ff60a01b191617905551600384015551910155835f52600460205260405f20918254905f1982146105fb577fb27aed77106145db23892196aa68559e904a9a72eea39dfeeee06aac4c7a3f5c9360016060930190558260405193849260408452816040850152848401375f828201840152426020830152601f01601f19168101030190a4005b634e487b7160e01b5f52601160045260245ffd5b015190508d80610512565b5f8a81528281209350601f198516905b818110610665575090846001959493921061064d575b505050811b018655610526565b01515f1960f88460031b161c191690558d8080610640565b9293602060018192878601518155019501930161062a565b909150885f5260205f20601f840160051c810191602085106106c3575b90601f859493920160051c01905b8181106106b557506104fc565b5f81558493506001016106a8565b909150819061069a565b634e487b7160e01b5f52604160045260245ffd5b60405162461bcd60e51b815260206004820152601860248201527f41677265656d656e7420616c72656164792065786973747300000000000000006044820152606490fd5b60405162461bcd60e51b815260206004820152601e60248201527f496e76616c696420636f756e7465727061727479207369676e617475726500006044820152606490fd5b60405162461bcd60e51b815260206004820152601b60248201527f496e76616c696420696e69746961746f72207369676e617475726500000000006044820152606490fd5b60405162461bcd60e51b815260206004820152600d60248201526c496e76616c6964206e6f6e636560981b6044820152606490fd5b60405162461bcd60e51b81526020600482015260116024820152701059dc99595b595b9d08195e1c1a5c9959607a1b6044820152606490fd5b346101b55760203660031901126101b5576004355f81815260036020526040902060020180546001600160a01b03811633036108ee5760a01c60ff1660038110156101a1576108a957805460ff60a01b1916600160a11b1790556040514281523391907f88f676d4a533e59b18d0516f3a6ac0a4942d0047c6c16c3f0e6cf803bac6da0b90602090a3005b60405162461bcd60e51b815260206004820152601760248201527f496e76616c69642061677265656d656e742073746174650000000000000000006044820152606490fd5b60405162461bcd60e51b815260206004820152601d60248201527f4f6e6c7920636f756e74657270617274792063616e206465636c696e650000006044820152606490fd5b346101b55760203660031901126101b5576004355f5260036020526109a460405f206040519061096e826109678184610bfe565b0383610c9b565b60018060a01b03600182015416906002810154906109cb600460038301549201549260405196879660c0885260c0880190610ba2565b60208701959095526001600160a01b0381166040870152606086019060a01c60ff16610cbd565b608084015260a08301520390f35b346101b5575f3660031901126101b5576002546040516001600160a01b039091168152602090f35b346101b5575f3660031901126101b557610a9d610a3d7f0000000000000000000000000000000000000000000000000000000000000000610d65565b610a667f0000000000000000000000000000000000000000000000000000000000000000610dc0565b6020610aab60405192610a798385610c9b565b5f84525f368137604051958695600f60f81b875260e08588015260e0870190610ba2565b908582036040870152610ba2565b4660608501523060808501525f60a085015283810360c08501528180845192838152019301915f5b828110610ae257505050500390f35b835185528695509381019392810192600101610ad3565b346101b55760203660031901126101b5576001600160a01b03610b1a610b8c565b165f526004602052602060405f2054604051908152f35b346101b5575f3660031901126101b557610b49610d3e565b600280546001600160a01b031981169091555f906001600160a01b03167f8be0079c531659141344cd1fd0a4f28419497f9722a3daafe3b4186f6b6457e08280a3005b600435906001600160a01b03821682036101b557565b805180835260209291819084018484015e5f828201840152601f01601f1916010190565b90600182811c92168015610bf4575b6020831014610be057565b634e487b7160e01b5f52602260045260245ffd5b91607f1691610bd5565b5f9291815491610c0d83610bc6565b8083529260018116908115610c625750600114610c2957505050565b5f9081526020812093945091925b838310610c48575060209250010190565b600181602092949394548385870101520191019190610c37565b915050602093945060ff929192191683830152151560051b010190565b60c0810190811067ffffffffffffffff8211176106cd57604052565b90601f8019910116810190811067ffffffffffffffff8211176106cd57604052565b9060038210156101a15752565b9181601f840112156101b55782359167ffffffffffffffff83116101b557602083818601950101116101b557565b92919267ffffffffffffffff82116106cd5760405191610d22601f8201601f191660200184610c9b565b8294818452818301116101b5578281602093845f960137010152565b6002546001600160a01b03163303610d5257565b63118cdaa760e01b5f523360045260245ffd5b60ff8114610dab5760ff811690601f8211610d9c5760405191610d89604084610c9b565b6020808452838101919036833783525290565b632cd44ac360e21b5f5260045ffd5b50604051610dbd816100e5815f610bfe565b90565b60ff8114610de45760ff811690601f8211610d9c5760405191610d89604084610c9b565b50604051610dbd816100e5816001610bfe565b307f00000000000000000000000000000000000000000000000000000000000000006001600160a01b03161480610eea575b15610e52577f000000000000000000000000000000000000000000000000000000000000000090565b60405160208101907f8b73c3c69bb8fe3d512ecc4cf759cc79239f7b179b0ffacaa9a75d522b39400f82527f000000000000000000000000000000000000000000000000000000000000000060408201527f000000000000000000000000000000000000000000000000000000000000000060608201524660808201523060a082015260a08152610ee460c082610c9b565b51902090565b507f00000000000000000000000000000000000000000000000000000000000000004614610e29565b8151919060418303610f4357610f3c9250602082015190606060408401519301515f1a90610fad565b9192909190565b50505f9160029190565b60048110156101a15780610f5f575050565b60018103610f765763f645eedf60e01b5f5260045ffd5b60028103610f91575063fce698f760e01b5f5260045260245ffd5b600314610f9b5750565b6335e2f38360e21b5f5260045260245ffd5b91907f7fffffffffffffffffffffffffffffff5d576e7357a4501ddfe92f46681b20a0841161102f579160209360809260ff5f9560405194855216868401526040830152606082015282805260015afa15611024575f516001600160a01b0381161561101a57905f905f90565b505f906001905f90565b6040513d5f823e3d90fd5b5050505f916003919056fea264697066735822122084c94b79a9243d98472d89dad807c7e7dcfe5a4a0501e070d4902e52232c4c9464736f6c634300081c0033",
  "linkReferences": {},
  "deployedLinkReferences": {}
}